:020000040800F2
:1000000010470020DD010008DB6E00085D5E00087F
:10001000D96E0008751600081F8400080000000053
:10002000000000000000000000000000E977000868
:100030003518000800000000E96E0008F50100080E
:10004000F7010008F7010008F7010008F7010008B0
:10005000F7010008F7010008F7010008F7010008A0
:10006000F7010008F7010008F7010008F701000890
:10007000F7010008F7010008F7010008F701000880
:10008000F7010008F7010008F7010008F701000870
:10009000F7010008F7010008F7010008F701000860
:1000A000F7010008F7010008F7010008F701000850
:1000B000F7010008F7010008F7010008F701000840
:1000C000F7010008F7010008F7010008F701000830
:1000D000F7010008F7010008F7010008F701000820
:1000E000F7010008F7010008F7010008F701000810
:1000F000F7010008F7010008F7010008F701000800
:10010000F7010008F7010008F7010008F7010008EF
:10011000F7010008F70100081D790008F701000841
:10012000F7010008F7010008F7010008F7010008CF
:10013000F7010008F7010008F7010008F7010008BF
:10014000F7010008F7010008F7010008DD6E00085C
:10015000F7010008F7010008F7010008F70100089F
:10016000F7010008F7010008F7010008F70100088F
:10017000F7010008F7010008F7010008000000007F
:10018000F7010008F7010008F7010008F70100086F
:10019000F7010008F7010008F7010008F70100085F
:1001A00051630008F701000819170008F70100085B
:1001B000F7010008F7010008F7010008F70100083F
:1001C000F7010008F7010008DFF80CD000F0D6FABC
:1001D00000480047D9C20008104700200648804761
:1001E00006480047FEE7FEE7FEE7FEE7FEE7FEE71C
:1001F000FEE7FEE7FEE7FEE7C9780008C901000850
:100200002DE9F05F0546002092469B46884606464B
:10021000814640241BE0284641464746224600F0DE
:10022000ADF853465A46C01A914110D311461846AC
:10023000224600F016F82D1A67EB01084F462246B9
:100240000120002100F00DF817EB00094E41201E9F
:10025000A4F10104DFDC484631462A464346BDE8A6
:10026000F09F202A04DB203A00FA02F100207047B8
:100270009140C2F1200320FA03F3194390407047E4
:1002800040EA01039B0703D009E008C9121F08C018
:10029000042AFAD203E011F8013B00F8013B521E98
:1002A000F9D27047D2B201E000F8012B491EFBD20F
:1002B00070470022F6E710B513460A460446194671
:1002C000FFF7F0FF204610BD421C10F8011B00296B
:1002D000FBD1801A704730B504460020034600E089
:1002E0005B1C934203D2E05CCD5C401BF8D030BD78
:1002F00030B505460020034600E05B1C934205D262
:10030000EC5CC85C201A01D1002CF6D130BD30B4B1
:10031000044696230800214604D0B62330BC0022B0
:1003200000F045B820460021F8E700F0004230F028
:1003300000400AD0C10D01F56071C0F3160042EA19
:100340000151C20840071143704700200146704721
:1003500030B50B46014600202022012409E021FA95
:1003600002F59D4205D303FA02F5491B04FA02F592
:100370002844151EA2F10102F1DC30BD202A04DB65
:10038000203A21FA02F00021704721FA02F3D0400E
:10039000C2F1200291400843194670470029A8BFC6
:1003A0007047401C490008BF20F00100704710B49E
:1003B000B0FA80FC00FA0CF050EA010404BF10BC53
:1003C000704749B1CCF1200421FA04F411FA0CF180
:1003D00018BF012121430843A3EB0C01CB1D4FEAB9
:1003E00000614FEA102042BF002010BC704700EBB4
:1003F000C35010440029A4BF10BC7047401C4900E2
:1004000008BF20F0010010BC70472DE9FE4F804668
:1004100081EA0300C00F0C46009021F0004123F058
:100420000045B8EB0200A94105D24046214690465E
:100430001C460B46024623F00040104347D0270DD0
:10044000C7F30A00C3F30A510290401A01904028F2
:100450006BDAC3F3130040F4801B0098924620B17E
:100460000023D2EB030A63EB0B0B01985946C0F152
:1004700040025046FFF7F5FE06460D4650465946E7
:10048000019A00F08DF910EB08006141002487EA21
:10049000115284EAE7731A4340D0009A62B3019A7A
:1004A000012A4FEA075215DC001B61EB02014FF0F5
:1004B000004202EA0752CDE90042001C41F58011DA
:1004C00032462B4600F08DF903B0BDE8F08F404670
:1004D0002146F9E7001B61EB0201001C41F5801386
:1004E00000185B412018A2F5001747EB030140EA12
:1004F000D570B6196D4111E06D084FEA360645EA30
:10050000C0754FEA0752001B61EB0201001C41F568
:10051000801149084FEA30000019514132462B46FC
:1005200003B0BDE8F04F00F04DB900980122400043
:100530000023D0EB020263EBE073009821464FEA00
:10054000E074B8EB000061EB0401E9E783F00043DD
:100550005BE781F0004158E72DE9FE4F81EA030493
:1005600004F0004421F0004100944FF0000B23F010
:10057000004350EA01045ED052EA03045BD0C3F3A7
:100580000A54C1F30A552C44A4F2F3340194A0FB9D
:100590000254C1F3130141F48011C3F3130343F474
:1005A000801301FB024400FB034E840A970A44EACD
:1005B000815447EA8357A4FB076802958D0A05FB1F
:1005C00007854FEA932C04FB0C542705029D4FEA44
:1005D000065847EA1637B5EB08056EEB070C870E91
:1005E000920E47EA811742EA8312A7FB0201B6EB9B
:1005F0000B0164EB00042B0D43EA0C335E1844EB53
:100600001C50DA465146E7FB0201C5F313044FEADA
:100610000B3343EA14534FEA0432019C43EA0603C6
:10062000A4F10C040294009CCDE900B400F0D9F8C8
:1006300003B0BDE8F08F00200146F9E72DE9F04D49
:1006400081EA030404F0004B21F0004514464FF00A
:10065000000A23F0004150EA050220D054EA0102CA
:100660001DD0C5F30A570246C5F31303C1F31300A7
:10067000C1F30A5640F4801543F48013A7EB060833
:10068000101BD64608F2FD3873EB050002D308F1C3
:10069000010801E092185B41B8F1000F03DA002075
:1006A0000146BDE8F08D00204FF4801106468446D7
:1006B0000EE0171B73EB050705D3121B63EB050355
:1006C00006434CEA010C49084FEA300092185B419E
:1006D00050EA0107EDD152EA030012D082EA040089
:1006E00083EA0501084305D0101BAB4106D2012265
:1006F000002306E000224FF0004302E06FF0010209
:1007000053101AEB06004CEB085110EB0A0041EBBA
:100710000B01BDE8F04D00F055B8C1F30A52C1F32A
:10072000130140F2FF3341F480119A4202DA0020B3
:100730000146704740F233439A42A2F2334202DC50
:100740005242FFF71BBEFFF78CBD000030B5041E00
:1007500071F1000404DB4FF00044404264EB0101FE
:10076000141E73F1000405DB1C464FF00043524297
:1007700063EB0403994208BF904230BD064C074D1D
:1007800006E0E06840F0010394E807009847103461
:10079000AC42F6D3FFF71CFD44220508642205088D
:1007A000202A06DBCB17203A41FA02F043EAE07335
:1007B00006E041FA02F3D040C2F120029140084322
:1007C0001946704710B5141E73F1000408DA401C76
:1007D00041F1000192185B411A4301D120F0010060
:1007E00010BD2DE9F04D92469B4611B1B1FA81F250
:1007F00002E0B0FA80F220329046FFF732FD044664
:100800000F4640EA0A0041EA0B0153465A460843A4
:1008100013D0114653EA010019D0C8F140025046E6
:10082000FFF7ACFD05460E46504659464246FFF7D7
:1008300018FD084305D0012004E020463946BDE8F4
:10084000F08D0020054346EAE0762C4337430A98B2
:100850006305E40AA0EB08000022FD0A44EA4754BD
:100860000A3002D500200146E9E701051019694167
:10087000DDE9084500196941BDE8F04DA2E770B512
:100880008C1810F8015B15F0070301D110F8013B3B
:100890002A1106D110F8012B03E010F8016B01F8C2
:1008A000016B5B1EF9D12B0705D40023521E0DD41A
:1008B00001F8013BFAE710F8013BCB1A921C03E068
:1008C00013F8015B01F8015B521EF9D5A142D8D3A0
:1008D000002070BD4A496FF0706210B5D1F8043342
:1008E00023F44033C1F80433D1F80433446823437C
:1008F000C1F8043301684B6823F480734B600168CE
:1009000003694C6844EA03234B6001684B6823F099
:1009100040734B60016884684B6823434B600168F7
:100920008B6823F400638B600168C4688B68234381
:100930008B60816AD14201688A6822F070628A60A5
:1009400001680DD0836A8A681A438A6001688A68E0
:1009500022F040528A600168C36A8A681A4302E042
:100960008A6822F040528A6001688A6822F0020296
:100970008A60016882698B6843EA42028A6090F863
:1009800020100029016811D01E4A4B6843F400630F
:100990004B6001684B6823F460434B600168446A14
:1009A0004B6802EB443213434B6003E04A6822F485
:1009B00000624A600168144BCA6A22F47002CA627B
:1009C0000168848BCA6A03EB04531A43CA62016844
:1009D0008A6822F400728A60016890F830208B687F
:1009E00043EA42228A6001688A6822F480628A604F
:1009F000016840698A6842EA8020886010BD000072
:100A00000020014000E0FFFF0000F0FF1CB504469D
:100A100000F08EFA034600F07BFA02460020CDE992
:100A200000040648064C006800EB800101EBC001A1
:100A300004EB8101C96D05F04BFC1CBD5007002083
:100A4000A43400200648C02330B4082405220460E2
:100A500061034361C261C16230BC02F079BE000033
:100A60002034002030B40A4C0A4B246804EB4404C0
:100A700003EB84039B689C881D68E41DDB88E40805
:100A8000203A14FB02F203FB025230BC00F0D4BE49
:100A9000500700208C350020094810B50068816996
:100AA00041F00101816101220648110301F094FE29
:100AB00001220548BDE81040082101F08DBE00006C
:100AC000A434002000200240002802402DE9F04715
:100AD000002704461546894610463A4600E0521C57
:100AE00010F8011B0029FAD100F012FADFF89CC0BF
:100AF000012B274EDCF8001001EB410106EB8101D0
:100B000089688988B0FBF1F002D0022B09D104E09A
:100B1000801A484304EB500002E0801A4843001B4F
:100B200084B247F6FF71601E884200D30124E0467C
:100B300000F0EEF90146D8F8000000EB400006EBAB
:100B400080008068808807FB101189B2814213D32E
:100B5000012012E049462046FFF784FFD8F8000044
:100B60007F1CBFB26D1C00EB400006EB800080686C
:100B70008088204484B2DBE700202A780AB1012172
:100B800000E000210842E5D1BDE8F08750070020D1
:100B90008C3500202DE9FF4F8246144603208946FC
:100BA0000025A0EB440878E03E4EA9EB040B3E4F35
:100BB0000AEB0500316801EB410157F821201FFACB
:100BC0008BF1039080B200F0AFF830681FFA8BF120
:100BD00000EB400057F82020AAEB0500029080B2FD
:100BE00000F0A2F83068A9EB050B1FFA8BF100EBBF
:100BF000400057F820200AEB0400019080B200F07A
:100C000093F830681FFA8BF100EB400057F8202072
:100C1000AAEB0400009080B200F086F8316809EB7E
:100C2000040B039801EB410180B257F821201FFA11
:100C30008BF100F079F830681FFA8BF100EB40007F
:100C400057F82020029880B200F06EF8326809EB65
:100C5000050B01981FFA8BF102EB420280B257F8A4
:100C6000222000F061F832681FFA8BF1009802EB45
:100C7000420280B257F8222000F056F8B8F1000F77
:100C800004DA08EB850000F1060805E0291B641E64
:100C900008EB810000F10A086D1CA54284D9BDE86B
:100CA000FF8F0000500700208C3500207CB51C4BC6
:100CB00006460D461B4C186800EB800101EBC00096
:100CC00004EB8000806C02281BD000F021F9196829
:100CD00000FB056001EB810505EBC10104EB81011F
:100CE000C96D01EB800118680E4D0024E83500EB5A
:100CF000400355F82330CDE90043012305F0E8FA1D
:100D00007CBD00F005F9196800FB056001EB810569
:100D100005EBC10104EB8101C96D01EB4001E2E784
:100D200050070020A4340020164B70B506460D462F
:100D30001868154C00EB800101EBC00004EB80004B
:100D4000806C02280ED000F0E3F8196805FB006003
:100D500001EB810303EBC10104EB8101C96D41F893
:100D6000202070BD00F0D4F8196805FB006001EB8D
:100D7000810303EBC10104EB8101C96D21F810204F
:100D800070BD000050070020A43400202DE9F04180
:100D90001C4616460D460746FFF788FF28193246BF
:100DA00081B23846FFF782FF22462946384600F0D6
:100DB00009F8B81922462946BDE8F04180B200F092
:100DC00001B800007CB51F4C05460B461E4E20683E
:100DD00000EB800101EBC00006EB8000806C022874
:100DE00021D000F095F8216800FB035001EB81034E
:100DF00003EBC10106EB8101C96D01EB800500BF6A
:100E000000F086F82468401E0F4BE83304EB4401E1
:100E100053F8211013460122CDE90001294620464E
:100E200005F056FA7CBD00F073F8216800FB035012
:100E300001EB810303EBC10106EB8101C96D01EBFD
:100E40004005DDE750070020A43400202DE9F74FCE
:100E5000DFF8B49014460320DFF8B0A0A0EB4406FE
:100E60000F4600259046D9F8000082B000EB400103
:100E70005AF8210000F0B8F94FF6FF7B31E08CB151
:100E800002980BEA44027B19001BCDE9000299B2DB
:100E900080B2FFF70BFF0098791B89B2019A80B2EC
:100EA000FFF704FF8DB102980BEA45023B1B401B84
:100EB000CDE9000299B280B2FFF7F8FE0098391927
:100EC00089B2019A80B2FFF7F1FE002E03DA06EB39
:100ED0008506B61D04E0281B641E06EB80060A3654
:100EE0006D1CA542CBD9D9F8000000EB40015AF89F
:100EF000210000F079F9029805B042463946BDE874
:100F0000F04FFFF747BE0000500700208C3500204F
:100F10000548006800EB800101EBC000034901EBCC
:100F20008000006E7047000050070020A4340020AD
:100F30000548006800EB800101EBC000034901EBAC
:100F40008000406E7047000050070020A43400204D
:100F50002DE9F041224C2820092140F21B1604F112
:100F6000140840F21525352240F21D1C0B2340F2D7
:100F7000352788E8EF1000212046FFF763FD4FF486
:100F8000F07222664FF488716166002084F83400A4
:100F900084F8350084F836006060A060114AE06093
:100FA00022602061204602F06DF818B90021204629
:100FB00000F05CF80A4802F0CDF801220A4811035B
:100FC00001F00AFC09480122082101F005FC00F0AB
:100FD00017F9074800F0FAF80020BDE8F08100009A
:100FE000A434002000680140002002400028024094
:100FF0005407002030B58DB00A4600230446009304
:10100000FFF786FFCDE90103FFF792FFFF21039071
:1010100007208DF8303009924FF4C0658DF83130DB
:10102000CDE9043106938DF83230CDE90750FFF752
:101030006FFF0A90FFF77CFF0B9022460948694634
:1010400001F0F6FF074904EB44004FF0FF34E831AC
:1010500001EB800223065460034C946041F8203079
:101060000DB030BDA4340020540700204748F0B52F
:10107000016887B041F080610160006800F0806025
:10108000059042481438016841F40001016001688C
:1010900001F400010591016841F01001016001684F
:1010A00001F010010591016841F040010160016803
:1010B00001F040010591016841F48071016001680F
:1010C00001F480710591016841F4007101600168CB
:1010D00001F400710591016841F4806101600168CB
:1010E00001F480610591016841F48071016001683B
:1010F00001F480710591016841F48061016000682C
:1011000002240E2500F4806005901020CDE9000433
:1011100002A8002180E832001D48694601F070FAFB
:10112000E6026946092004901A48CDE9006401F0FE
:1011300067FA194F4FF46640CDE900046946384616
:10114000049501F05DFA4EF6FF706946CDE90004A2
:101150001248049501F054FA0495F720104D6946A1
:10116000CDE90004284601F04BFA012469463846CF
:10117000CDE9006401F044FA08206946CDE9000495
:10118000284601F03DFA07B0F0BD000044380240A7
:1011900000100240001802400020024000240240DB
:1011A00000280240014908607047000050070020F5
:1011B0000449054A096801EB410102EB81014860DD
:1011C00070470000500700208C3500200449054A74
:1011D000096801EB410102EB810188607047000062
:1011E000500700208C3500200349044A096801EBB0
:1011F000410142F821007047500700208C35002043
:101200001B4802222DE9F04100F13401174E07235B
:101210000660042581E82C00CB6000240A61D70118
:101220004A6110238A61910244604026C0E9024568
:101230004A00C0E90741C0E909241030002180E8D4
:10124000C800103800F05EF809490948343103F04D
:1012500023FB084D10B10120287000E02C7040F2F3
:10126000036000F009F82878BDE8F081400100A093
:10127000643600205C0700202DE9F843204C10273D
:1012800000254FF6FF780126009521468146C4E9E6
:101290000067C4E90265A1F15000424603F030FB4B
:1012A000012001F07FF802202146C4E90007C4E9CB
:1012B0000265A1F15000424603F022FB03214246A1
:1012C000C4E9001708202146C4E90205A1F1500035
:1012D00003F016FB4FF40870009004214246C4E965
:1012E0000260C4E900172146A1F1500003F008FB99
:1012F000A4F150004946BDE8F84303F0F0BA0000FD
:10130000B4360020F0B504464F4887B0016841F07C
:101310000101016000684C4900F0010005900839A6
:10132000086840F480000860086800F480000590B8
:10133000086840F004000860086800F004000590A8
:10134000086840F008000860086800F00800059090
:10135000086840F010000860086800F01000059070
:10136000086840F020000860086800F02000059040
:10137000086840F040000860086800F040000590F0
:10138000086840F080000860086801210C2200F025
:10139000800005900220CDE9010108230093CDE9EA
:1013A00003022A48694601F02BF94CF203700090C1
:1013B0002748694601F024F94FF6837000902548CC
:1013C000694601F01DF94FF63F000090224869463A
:1013D00001F016F948F2331000902048694601F0F8
:1013E0000FF9282000901E48694601F009F91D49AF
:1013F0004FF4007500224FF0800CEE006F004A6041
:101400006801C1E902C5C1E904761831164EC3006E
:10141000032581E80D00C1E903254A618A6141F88D
:10142000186D21630F488C6300F019FF0D4800F020
:1014300047FF00220F21382001F0C0FF382001F0C3
:10144000AFFF07B0F0BD000038380240000802408E
:10145000000C02400010024000140240001802403C
:10146000001C0240A4350020106402402DE9F04F1A
:1014700095B0584D4FF0000B06465C46CDF844B091
:10148000CDF848B0CDF84CB0A868016968788847B5
:10149000002830707ED000240DF1100A0DF13809BB
:1014A00008AF8BE0A8680DF12C080AEB440208EBAA
:1014B00044014369687898472878012807D138F8AB
:1014C000142029F814203AF8141027F81410810772
:1014D00005D538F81410C1F5805129F814104107CA
:1014E00005D53AF81410C1F5805127F814100007FB
:1014F00007D538F8140027F814003AF8141029F822
:101500001410DFF8D48039F8140058F824108842F9
:1015100001D9421A00E00A1A2F491FFA82FC37F853
:101520001420143151F824309A4201D9D31A00E022
:101530009B1A9BB26344052B03D948F8240041F859
:10154000242095F801C0BCF1700F26D058F8242053
:1015500006EB44006B885A43120B428051F824106A
:10156000AA885143090B818113A8214612AB009030
:1015700011AA60460AF032FC30191199817512994E
:1015800080F82010139979B101290FD0022910D0C9
:10159000032900E01AE010D10DE006EB4401488079
:1015A00037F814008881DFE7012100E00221C176CD
:1015B00003E00321FBE780F81BB0641C3078A042F5
:1015C0003FF670AF304600F009F8044615B02046EB
:1015D000BDE8F08F60070020C4360020F8B504464F
:1015E0001448002669460096354640780AF0E6FB26
:1015F0000098182816D005DC68B110280DD01428E2
:1016000006D10CE01C280FD040280FD049280FD05D
:1016100001252846F8BDA662FBE7012000E0022074
:10162000A062F6E70320FBE70420F9E70520F7E7CF
:101630000620F5E76007002070B50C4C00260C4D25
:1016400060807020A1802968884769687020884779
:10165000512802D00326304670BDA560702060700E
:1016600008212170E9688847F5E70000600700203D
:101670006C070020FEE70000204AF0B5204E1168FC
:1016800040F25144631C002021F001071760012142
:101690003268C2F30A02A2F58065493D04D0A24235
:1016A00004D140F0010005E0084603E09A4201D170
:1016B000012200E00022144B1043124A09D01348C3
:1016C000816081680029FCD102600068984213D0D3
:1016D000FEE70F4C4FF00A402468B0EB445F0BD19B
:1016E0000C48016001680029FCD10A4808380260F2
:1016F0000068984200D0FEE7F0BD0000002000E046
:10170000002004E0C2A507F4CDB5E8B500300240E2
:101710000010005C084C0258014800F025BC000095
:1017200028150020F0B5059C44EA034503685C6C6D
:1017300004F040442C435C640368DA634268B2F509
:10174000403F02D00068C160F0BD01F47F4285686F
:1017500001F47F04224301F07F4301F47F0701F489
:101760007F46CCB2BDB1012D16D001F47F02C1F38A
:10177000C401D20C022D11D0032D14D0320B390D1F
:1017800015011A0F45EA0123210943EA02320A43EF
:1017900000688263F0BD1A432243F9E7B30A5B0194
:1017A00043EAC222F3E7F40ADB0F640144EA82222F
:1017B00042EAC332EBE7000001681823CAB2103ACC
:1017C000B2FBF3F2054B6FF30901032A9B5CC3657F
:1017D00000D9091D816508467047000030020508E0
:1017E00010B583694FF0C074826A0146002053B17E
:1017F000B3F5005F15D072B1012A0CD0022A0AD0CD
:10180000032A09D104E01AB1012A06D0022A03D121
:10181000C96AC90100D5012010BDC96AA142FAD028
:1018200010BD002AF7D0012AF2D0022AF3D0032AF1
:10183000F3D010BD704700002DE9F74F294800266E
:10184000DFF89CA0006800EB40000AEB8000806895
:101850008588C788E81D834620F00700401B00F0FC
:10186000FF0939E04FEADB010298012901FB06007C
:1018700009D0022909D0017842788378080440EA27
:101880000220184303E0007801E0008840BA0024F9
:1018900080461AE02A1B02EB09010120491E8840FC
:1018A00010EA080F009800EB04020E48016890B29D
:1018B00001EB410202D05AF8222002E00AEB820139
:1018C0004A680199FFF730FA641CAC42E2D30198F0
:1018D000401C80B20190761CBE42C3D3BDE8FE8F8F
:1018E0008C35002050070020F0B5D1E90125D1E961
:1018F0000343D1E905762A43D1F800C044EA030442
:10190000D1E9073542EA0402496A42EA0702BCF11A
:10191000010F42EA060208D004681A432A430A4328
:10192000E30BDB031A4302600BE0066844682B43B9
:1019300026F4F84529430B4303606FF30E0422435A
:1019400042600020F0BD426942EA4101416100204D
:10195000704738B591E81C00C9686FF01F051A433D
:1019600005EB441444EA41210A430092026100203D
:1019700038BD00002DE9F043914691E81C006FF05E
:101980000F05521E2E0105EB03131A430B7E06EBC7
:1019900004268C8A2F034FEA054C0D8A32434FF000
:1019A0007F4808EB0366CB68B9F1010F07EB0545EB
:1019B0000CEB04540CD081683F1107EB03331A433E
:1019C0002A432243324301F070410A43826011E00E
:1019D0008168DFF828C0C7681B03A3F58053234341
:1019E0002A4301EA0C0132430B43836007F0704441
:1019F0002243C2600020BDE8F0830000FF0F0FFF0C
:101A0000F8B50025009590F83C20012A18D0012255
:101A100080F83C200A6807234E4C0668092A1AD928
:101A20000A3A02EB4207F268BB409A43F2600E6842
:101A30000268A64206D10B7AD66846EA036308E03C
:101A40000220F8BD0A3E8B68D76806EB4606B34015
:101A50003B43D3600EE002EB42073269BB409A433E
:101A6000326103680E788A681F6906EB4606B24049
:101A70003A431A614A681F23072A13D20668521E86
:101A800002EB8207726BBB409A43726303680E7964
:101A90000A88761E5F6B92B206EB8606B2403A4326
:101AA0005A6327E006680D2A12D2D21F02EB820782
:101AB000326BBB409A43326302680E790B88F61F83
:101AC000176B9BB206EB8606B3403B43136311E0F2
:101AD0000D3A02EB8207F26ABB409A43F262026857
:101AE0000E790B880D3ED76A9BB206EB8606B34093
:101AF0003B43D362184A0368934208D10B68122B08
:101B000005D1D2F8043343F48003C2F804330368E8
:101B100093421AD10B68A34201D0112B15D1D2F8F0
:101B2000043343F40003C2F804330968A1420CD122
:101B30000A490B4A0968B1FBF2F101EB8101490046
:101B400000E0491E00910029FBD180F83C500020A4
:101B5000F8BD000012000010002001400407002022
:101B600040420F0070B504004FF0000503D0206C18
:101B7000002610B107E0012070BD204600F01CF8DF
:101B8000666484F83C60206CC00610D4206C20F49D
:101B9000885040F0020020642046FEF79BFE6664F9
:101BA000206C20F0020040F00100206400E00125DC
:101BB00084F83C60284670BD30B587B004461421D7
:101BC0006846FEF776FB1A49206888422DD11948ED
:101BD000016841F480610160006800F48060059054
:101BE00014481438016841F020010160016801F0D7
:101BF00020010591016841F00101016000680325A1
:101C00000024694600F0010005904FF4F86002944A
:101C1000CDE90005084800F0F3FC01206946CDE954
:101C200000050648029400F0EBFC07B030BD000050
:101C300000220140443802400014024000000240EB
:101C4000F0B50126044600201E2301E05B1E05D3EB
:101C500003F01F0706FA07F50D42F7D072B1082A04
:101C60000AD0102A05D0182A01D1072B06D301204B
:101C7000F0BD082BFBD201E0102BF8D2236859618C
:101C800021688B6823F0180313438B60F0BD0000BC
:101C900010B5040010D0607F20B9002020772046C6
:101CA00000F032F821790220607739B1D4E90212CC
:101CB0002046FFF7C5FF48B1012010BD216811483B
:101CC00048612068816821F0180181606079A0B1C5
:101CD000216820690861012220686369816821F018
:101CE0006001194381602068A369816821F0800147
:101CF000194381606277002010BD21684FF0FF30EA
:101D0000E8E70000B71DC10408B50068064988422D
:101D100008D10648016841F480510160006800F470
:101D20008050009008BD0000003002403038024072
:101D300070B5040003D094F8350010B104E0012020
:101D400070BD204600F03AF8022084F83500206883
:101D5000194A016811400160D4E90453E168D4E9EB
:101D6000010229431843A36908431043D4E9081525
:101D70001843084354F8281B28432CCC10430A6806
:101D8000184328431043086054F8300C343C1028A2
:101D900005D12268E17FE06961F31F6090612068EE
:101DA00000220121C36843F01E03C360E26484F88B
:101DB0003510104670BD000007F0E0FF70B586B02A
:101DC000044614216846FEF774FA374920688842B1
:101DD00068D13648016841F001010160006800F0F7
:101DE000010005903148001F016841F010010160B9
:101DF000016801F010010591016841F008010160DE
:101E0000016801F008010591016841F0400101609D
:101E1000016801F040010591016841F08001016015
:101E2000016801F080010591016841F00101016044
:101E3000006800240D26694600F00100059060202E
:101E4000009002251A48CDE90154CDE9034600F07F
:101E5000D7FB08200090CDE9015416486946CDE92A
:101E6000034600F0CDFB28020090CDE90154124852
:101E70006946CDE9034600F0C3FB4FF4BC40009037
:101E8000CDE901540D486946CDE9034600F0B8FBA1
:101E900050200090CDE9015409486946CDE9034638
:101EA00000F0AEFB06B070BD0000055034380240B3
:101EB00000100240000C024000180240001C0240CA
:101EC000000002407047000070B590F83820012AE9
:101ED00023D0244C012680F83860022300EB011245
:101EE00080F83930158CD36918320A2B43EA05453E
:101EF00015D0092B13D0137B45EA0363056899B10C
:101F0000E969A1431943E961016813680B615168EC
:101F10000A291BD0092919D01DE0022070BDD36801
:101F200003F07F432B43E9E7696AA14319436962E0
:101F3000016813688B6151680A2901D009290AD107
:101F4000D168026821F07F41916204E0D1680268A3
:101F500021F07F411162002180F8396080F838104B
:101F6000084670BD0F0003FF2DE9F04704460068E6
:101F700000274FF004084FF0010946680568F10793
:101F800014D0E90512D5036823F480730360E06B75
:101F900040F00100E0632068C0F8089084F83980C0
:101FA00084F83870616909B120468847B00615D5B4
:101FB000A80413D520682022036823F4005303608B
:101FC00020688260E06B40F00200E06384F83980B2
:101FD00084F83870616909B120468847300715D503
:101FE000280513D520680822036823F400630360E2
:101FF00020688260E06B40F00400E06384F8398080
:1020000084F83870616909B12046884770070CD59B
:1020100068050AD52068026822F4806202602068A0
:10202000C0F80880204600F05AF8B00713D5A8057C
:1020300011D520680222036823F40073036020682E
:102040008260E06BE06384F8399084F8387021692D
:1020500009B120468847F00612D5E80410D520685B
:10206000016821F480510160226810219160E16BC8
:10207000E16384F83990204684F83870FFF722FF36
:10208000BDE8F08770B5040004D094F8390000254D
:1020900010B106E0012070BD204684F8385000F0F1
:1020A0001FF8022084F83900D4E9000301210268F6
:1020B00022F440321A4302602068A368426B22F087
:1020C00007021A4342632068E368026C6FF30D0253
:1020D0001A430264E56384F83910002070BD70472C
:1020E00008B500680B49884212D10B48016841F4D9
:1020F0000001016000680022114600F40000009019
:102100005A2001F05BF9BDE808405A2001F048B9B7
:1021100008BD000000B00240303802402DE9F8430D
:102120000026044604270D4600964FF00308006879
:102130000068C00726D000F067FB81461EE04068BB
:10214000009010F0210F10D00098800603D5E06BAE
:1021500040F00200E0630098C00703D0E06B40F05D
:102160000100E0632168212035E0681C06D000F002
:102170004BFBA0EB0900A8424DD8A5B320684168ED
:102180008907DCD52068C169406A01F0200100F0B0
:102190002000084335D000F037FB81462DE0406831
:1021A000009010F0290F1FD00098000703D5E06BB6
:1021B00040F00400E0630098800603D5E06B40F037
:1021C0000200E0630098C00703D0E06B40F001001C
:1021D000E06321682920886084F83970012084F840
:1021E0003860BDE8F88316E0681C06D000F00CFBF0
:1021F000A0EB0900A8420ED86DB120684168C9065D
:10220000CDD5226812210120916084F83900002088
:1022100084F83860E5E7E16B84F8386041F020012C
:10222000E16384F839800320DBE7F8B504460698BB
:1022300094F83850012D10D0012684F8386002251A
:1022400084F8395000902046FFF76CFA2068016846
:1022500041F0010101600020F8BD0220F8BD70B519
:1022600004002BD094F83500022826D020680025E1
:102270002122016821F001010160206805602068C9
:102280004560206885602068C56020680561206819
:1022900042612046FFF790FA94F85C203F2191407C
:1022A0008160E56325646564A564E564256565650D
:1022B00084F83550002084F8345070BD012070BD82
:1022C0002DE9F047044600F09FFA054664B14FF04F
:1022D000000984F83490022184F8351020680168E0
:1022E00021F0010101600EE00120BDE8F08700BF90
:1022F00000F08AFA401B052805D9202161650320DA
:1023000084F83500F1E720680068C007F0D1D4E90F
:102310000020D4E90251D4E9043C284304F1180513
:1023200019430843116895E8E00140EA0C001C4B92
:102330002843194040EA060040EA0700B8F1040FBC
:1023400040EA010003D1D4E90B131943084310609C
:1023500020680126656A4069042D20F0070045EADF
:1023600000050CD1D4E90A01054341B12046FFF72D
:1023700037FA20B14020606584F83560B4E7206802
:1023800045612046FFF718FA94F85C303F229A40E6
:102390008260C4F8549084F835600020A5E70000FE
:1023A0003F8010F070B5044600F02EFA0546601C20
:1023B00002D004480078044400F026FA401BA042F2
:1023C000FAD370BDF8060020F0B587B01421684636
:1023D000FDF76FFF2148016800293CD10121016010
:1023E0001F48016841F001010160006802240025D6
:1023F000694600F00100059003264FF683700C2714
:102400008DE8F100174800F0FBF848F233106946F8
:102410008DE8F100144800F0F3F84CF203706946BF
:102420008DE8F100114800F0EBF84FF63F006946E7
:102430008DE8F1000E4800F0E3F8282069468DE8A9
:10244000F1000C4800F0DCF8082069468DE8F10046
:10245000094800F0D5F807B0F0BD0000E406002000
:10246000383802400010024000180240000C0240C0
:1024700000140240001C0240000802402DE9F04F09
:10248000DFF84CE100224FF001094FF00F0A00BFC6
:1024900009FA02F401EA0403A3427CD122F0030604
:1024A00076449707D6F808C83F0FDFF828810AFA64
:1024B00007FB40450BEA0C0502D14FF0000C40E051
:1024C000DFF814C1604502D14FF0010C39E0DFF8AC
:1024D0000CC1604502D14FF0020C32E0DFF800C1C0
:1024E000604502D14FF0030C2BE0DFF8F8C06045E7
:1024F00002D14FF0040C24E0DFF8ECC0604502D1BB
:102500004FF0050C1DE0DFF8E4C0604502D14FF04C
:10251000060C16E0DFF8D8C0604502D14FF0070C7A
:102520000FE0DFF8D0C0604502D14FF0080C08E0A2
:10253000DFF8C4C0604502D14FF0090C01E04FF054
:102540000A0C0CFA07FCAC451DD1D6F80888DFF858
:10255000ACC028EA0B08C6F808880CF10405DCF8C2
:1025600000802E1D371D28EA0308CCF80080D5F81E
:1025700000C02CEA030CC5F800C035689D433560E7
:102580003D689D433D6003230768D5084FEA420834
:102590004FEA427C00E015E04FEADC6C03FA08F3F6
:1025A0009F4307600AFA0CF600EB85052F6AB743D4
:1025B0002F6285689D4385604568A5434560C46872
:1025C0009C43C460521C102AFFF462AFBDE8F08F38
:1025D00000300140000002400004024000080240B8
:1025E000000C02400010024000140240001802409B
:1025F000001C02400020024000240240003C014038
:102600002DE9F84FDFF89CE100224FF001084FF070
:10261000030B4FF00F0A00BF0B6808FA02F42340C7
:10262000A34271D14D68022D01D0122D0FD1D508D2
:102630000E69570700EB8505A9462D6AFF0E0AFAB9
:1026400007FCBE4025EA0C052E43C9F820600F792F
:10265000550006680BFA05FC07F0030726EA0C068E
:10266000AF40374307604E68012E05D0022E03D0DD
:10267000112E01D0122E0ED18668CF6826EA0C06E4
:10268000AF403743876046680F79A643C7F300170A
:10269000974037434760C4688E6824EA0C04AE4014
:1026A0002643C6604C68E40075D53F4C256845F468
:1026B00080452560246822F00306950704F48044D1
:1026C00000943A4C2D0F2644D6F80848DFF8E0C0B5
:1026D0000AFA05F7604524EA070401D100272EE035
:1026E000344FB84201D1012729E0334FB84201D11C
:1026F000022724E0314FB84201D103271FE0304FB9
:10270000B84202D104271AE045E02E4FB84201D169
:10271000052714E02C4FB84201D106270FE02B4FBC
:10272000B84201D107270AE0294FB84201D1082752
:1027300005E0284FB84201D1092700E00A27AF4041
:1027400027437546C6F808784E68DEF80040F60361
:1027500024EA030400D51C43124E2C60361D4D683C
:102760003468AD0324EA030400D51C430D4F3460E4
:1027700008374D683C68ED0224EA030400D51C4389
:10278000084D3C600C354E682C68B60224EA030400
:1027900000D51C432C60521C102AFFF43DAFBDE84D
:1027A000F88F0000003C01404438024000300140F6
:1027B000000002400004024000080240000C0240F9
:1027C000001002400014024000180240001C0240A9
:1027D00000200240002402400AB1816170470904D0
:1027E000FBE7000002480068C0F30B0070470000E0
:1027F000002004E00048704700070201014800681B
:10280000000C7047002004E0014880687047000019
:10281000F806002070477047704700002DE9F0412E
:1028200004460068064605F0E9FC01286FD12068DF
:1028300005F0CCFD00286AD0206805F0C7FD8002B5
:1028400003D521684FF400104861206805F0BEFDF3
:10285000C00203D521684FF480104861206805F05C
:10286000B5FD400103D521684FF0806048612068C4
:1028700005F0ACFD800702D5216802204861206880
:1028800005F0A4FD800010D5D6F8400420F02E00FD
:10289000C6F840042046FFF7BEFF2068012105F07E
:1028A00079FD21684FF000504861206805F08EFDE9
:1028B000C00102D5204603F03AFA206805F086FDF3
:1028C000000705D5204600F0BBF8216808204861C4
:1028D000206805F07BFD800124D5206805F0F3FC1D
:1028E000002507464FF0010815E000BF05F00F0175
:1028F00008FA01F038420DD006EB4510D0F800057B
:10290000E9B20004204603D502F0D8FF02E01CE043
:1029100003F0EEF86D1CA068A842E7D821684FF0DC
:1029200000704861206805F051FDC043C0060CD41A
:102930002068816921F010018161204603F054FA7A
:102940002068816941F010018161BDE8F08130B5F6
:1029500004008BB003D094F8B90218B108E001204C
:102960000BB030BD002084F8B802204600F024F8F7
:10297000032084F8B902206805F002FC04F110017C
:10298000684628220D46FDF77BFC94E80F0005F011
:10299000A5FB2068012105F02BFD28222946684669
:1029A000FDF76EFC94E80F0005F092FC012084F81E
:1029B000B9020020D4E7000010B586B00446142107
:1029C0006846FDF776FC2068B0F1A04F30D1194879
:1029D000016841F00101016000680221002200F05D
:1029E0000100059003230A244FF4E0508DE81F00F6
:1029F00011486946FFF704FE0E48001D016841F0CA
:102A000080010160006800F08000059009481430E2
:102A1000016841F48041016000680022114600F421
:102A200080400590432000F0C9FC432000F0B8FC32
:102A300006B010BD303802400000024070477047B9
:102A4000704730B590F84120202A24D190F84020DA
:102A5000012A20D0012380F84030242280F8412030
:102A6000202300240268156825F00105156002681E
:102A7000156825F480551560026815680D431560CA
:102A800001680A6842F001020A6080F8413080F86B
:102A90004040002030BD022030BD30B590F84120CC
:102AA000202A22D190F84020012A1ED0012380F84C
:102AB0004030242280F84120202400250268136839
:102AC00023F0010313600268136823F4706343EA80
:102AD0000121116001680A6842F001020A6080F871
:102AE000414080F84050002030BD022030BD10B57C
:102AF000040014D0242084F841002068016821F0EB
:102B000001010160204600F0C9F90020606484F8EA
:102B10004100206384F8420084F8400010BD012089
:102B200010BD90F84100704770B5040004D094F8CF
:102B30004100002510B106E0012070BD204684F858
:102B4000405000F0CFF9242084F84100206801684B
:102B500021F001010160D4E9001020F070600861EB
:102B60002068816821F400418160E06821680128C3
:102B7000A06806D040F404408860E068022803D0D2
:102B800006E040F40040F7E721684FF40060486039
:102B900020212068114A4368134343602068C268BB
:102BA00022F40042C26054F8106B0DCC104340EA8E
:102BB0000320F06054F81C3CD4E900021043186074
:102BC00054F81C0D026842F001020260656484F84A
:102BD0004110256384F84250002070BD008000023F
:102BE0002DE9FF4F83B0044690F841009A46934682
:102BF000DDE91087DDF84890202874D15FEA0800ED
:102C000014D09FB194F8400001286CD0012084F8C2
:102C10004000FFF7F9FD0122064619230090D10379
:102C2000204603F0EBF9002871D103E04FF4007067
:102C300060646CE00025C4F82480222184F84110EF
:102C4000402084F8420065646785534665635A46B0
:102C500004992046CDE9009603F056F910B184F8A6
:102C6000405054E0618DFF2734484FF08078FF29B1
:102C70004FF0007A04D927853A464346009005E094
:102C8000618D53462185009094F8282020460499B0
:102C900003F09EF900224B4604212046009603F0E3
:102CA000ADF9A0BB2068616A406A0870606A401C88
:102CB0006062208D401E81B22185608D401E60853E
:102CC000608DD8B1D1B900224B46802120460096B4
:102CD00003F094F9D8B9608DFF2805D927853A46C5
:102CE0004346009506E026E0608D5346208500951A
:102CF00094F828202046049903F06AF9608D002892
:102D0000C8D132464946204603F0A5F918B1012042
:102D100007B0BDE8F08F21682020094AC86121680A
:102D20004B6813404B6084F8410084F84250002007
:102D300084F84050ECE70220EAE70000002400801D
:102D400000E800FE2DE9FF4F83B0044690F84100F3
:102D50009A469346DDE91087DDF84890202871D126
:102D60005FEA080014D09FB194F84000012869D0B0
:102D7000012084F84000FFF747FD01220646192391
:102D80000090D103204603F039F900286ED103E00A
:102D90004FF40070606469E00025C4F824802121AC
:102DA00084F84110402084F84200656467855346EA
:102DB00065635A4604992046CDE9009603F0D6F89B
:102DC00010B184F8405051E0608DFF274FF08078BB
:102DD000FF284FF0007A04D927853A4643460095EC
:102DE00005E0608D53462085009594F82820204604
:102DF000049903F0EDF832464946204603F052F9B3
:102E0000A0BB606A216800788862606A401C6062CA
:102E1000608D401E6085208D401E80B22085618DB2
:102E2000D9B1D0B900224B4680212046009603F04C
:102E3000E5F8D8B9608DFF2805D927853A4643467D
:102E4000009506E026E0608D53462085009594F8B5
:102E500028202046049903F0BBF8608D0028CAD1D1
:102E600032464946204603F0F6F818B1012007B073
:102E7000BDE8F08F20682021074AC16120684368BF
:102E80001340436084F8411084F84250002084F8D5
:102E90004050ECE70220EAE700E800FE0C4A016837
:102EA0000C48914207D1016821F4001101600A48E1
:102EB0004FF4407109E0094A914208D1016821F4B8
:102EC0000001016006484FF4C071FFF7D7BA7047A0
:102ED000005400404038024000040240005C0040C2
:102EE000001C024070B586B0044614216846FDF708
:102EF000E0F925681220224C0122224E04232049A9
:102F00001034B5421BD10D6845F002050D6009680B
:102F10000025049301F0020105914FF44071CDE9C1
:102F2000001019486946CDE90225FFF769FB2068C2
:102F300040F400102060206800F400101DE0134EE3
:102F4000B5421BD10D6845F080050D600968032569
:102F5000049301F0800105914FF4C071CDE9001098
:102F60000B486946CDE90225FFF74AFB206840F48B
:102F700000002060206800F40000059006B070BDDD
:102F8000303802400054004000040240005C004021
:102F9000001C024002488168027811448160704739
:102FA000F8060020032010B500F028FA002000F0F9
:102FB00005F800F0DDF9002010BD000010B500227A
:102FC0000146362088B000F0F9F9362000F0E8F923
:102FD0001348016841F010010160006805A900F084
:102FE00010000690684600F0C7FE00F0EBFE0D49A9
:102FF000400000220C4CB0FBF1F10C4840F2E733EA
:103000000460C0E90332491EC0E9011201F0F0FF7B
:1030100010B1012008B010BD044802F049F8F9E7EA
:103020004038024040420F00001000402C21002098
:103030002DE9F041044690F8A00016460F460128FD
:103040001DD0012584F8A050022084F8A10006EBD1
:10305000860000EBC600342204EB80003830FDF718
:103060000FF932463946204603F078F921680020EE
:103070004D6284F8A15084F8A000BDE8F0810220E0
:10308000FBE7704790F8A10070472DE9F041044636
:10309000006800274FF00408856B466B690715D55B
:1030A000710713D5426B22F0040242632068C0F816
:1030B0003C80D4F8A40040F00100C4F8A40084F8D7
:1030C000A180204684F8A070FFF7DBFFA80716D583
:1030D000B00714D520680222436B23F00203436338
:1030E0002068C263D4F8A40040F00200C4F8A40031
:1030F00084F8A180204684F8A070FFF7C2FF05EA9B
:1031000006004FF00108C0070ED021684A6B22F07C
:1031100001024A632168C1F83C8084F8A1802046FE
:1031200084F8A07000F092F8280710D530070ED56B
:1031300020680822436B23F0080343632068C263BE
:1031400084F8A180204684F8A07000F00FF9BDE853
:10315000F08100002DE9F041040004D094F8A100B2
:10316000002518B107E00120BDE8F081204684F871
:10317000A05000F06DF83448022184F8A11001221B
:1031800002CC8B6923F070438B6194E84A001943A9
:10319000E3681E4354F8043D31439E69314399610D
:1031A00021688B6803408B602168A68AA7698B68B9
:1031B0003B4343EA06438B602168CB680340CB6006
:1031C0002168A38B276ACE683E4346EA0346CE6059
:1031D00021680B6903400B612368A68CA76A1969F3
:1031E000394341EA0641196121684B6903404B614B
:1031F0002068A38D266B4169314341EA0341416157
:10320000236894F8351094F83600DE6A000406F05E
:103210007F46DE62236840EA012094F83460D96A70
:1032200031430143D9622068416B41F0060141639B
:103230002068816941F001018161C4F8A45084F8DB
:10324000A120002090E7000000F800F07047000087
:1032500070B586B0044614216846FDF72AF83C494B
:103260002068884272D13B48016841F0806101606A
:10327000006800F08060059036481438016841F01D
:1032800010010160016801F010010591016841F42D
:1032900000710160016801F400710591016841F459
:1032A00080610160016801F480610591016841F06D
:1032B00040010160016801F040010591016841F49D
:1032C00080710160006800240E26694600F4807059
:1032D00005901020009002251F48CDE90154CDE94A
:1032E0000346FFF78DF94EF6FF700090CDE90154CB
:1032F0001A486946CDE90346FFF782F9F7200090A6
:10330000CDE9015416486946CDE90346FFF778F93F
:103310000921E8020090CDE90154CDE903411148AB
:103320006946FFF76DF94FF446400090CDE901542E
:103330000D486946CDE90346FFF762F9002258209F
:10334000114600F03BF8582000F02AF806B070BD96
:10335000006801404438024000100240002402404E
:103360000028024000180240002002407047000080
:103370000A4808B5016841F080510160006800F01A
:10338000805000900548001D016841F480410160B3
:10339000006800F48040009008BD00004038024002
:1033A000002809DB410900F01F028900012001F11A
:1033B000E0219040C1F80001704700000E4BF0B4CE
:1033C0001B680D46C3F30223C3F10706042E00D980
:1033D0000426191D072901D2002300E0DB1E012469
:1033E00004FA06F19C40491E2940641E994014408D
:1033F0002143F0BC05F04BB80CED00E0064900F0AD
:10340000070210B54FF6FF040868044B204040EA5D
:1034100002201843086010BD0CED00E00000FA0522
:103420001848F8B5016841F0805101600068164CF9
:1034300000F080500090206840F480302060FFF75A
:10344000E3F94FF47A76054605E000BFFFF7DCF9B3
:10345000401BB0420FD86068C003F7D5206840F425
:1034600000302060FFF7D0F9054606E0FFF7CCF901
:10347000401BB04201D90320F8BD60688003F5D538
:103480000020F8BD4038024000700040024801684A
:1034900041F480710160704700700040F8B5044647
:1034A000FFF7B2F907465CB194F84000012809D053
:1034B000012684F84060002594F8410020B10BE01B
:1034C0000120F8BD0220F8BD84F84050204600F0ED
:1034D00045F841F28830A06420686FF0FF03A168CE
:1034E000026803EB012322F4F85119430160A06C38
:1034F000002220213B460090204603F0F6FC30BB22
:103500002268D4E9077C94F804E0E1681368394341
:10351000104F4CEA0E6EDFF840C03B4041EA0E010E
:10352000194311602168D4E90527B4F810E04B680D
:103530003A4303EA0C0343EA0E431A434A60216804
:103540000A6842F001020A60656484F8416084F808
:103550004050F8BD2FFFFF00FEF8E0FF2DE9F043DB
:1035600087B0044614216846FCF7A3FE2B49206867
:1035700088424FD12A48016841F002010160006889
:1035800000F00200059026480838016841F010015B
:103590000160016801F010010591016841F002012C
:1035A0000160016801F002010591016841F0080124
:1035B00001600068092701AA4FF0040800F0080024
:1035C000CDF80080022469460025CDE90470032669
:1035D000144882E87000FFF713F80A21DFF84890DA
:1035E0004020CDE903618DE8310069464846FFF788
:1035F00007F801AACDF800806946484682E8F00045
:10360000FEF7FEFF4FF4605069468DE8F100074871
:10361000FEF7F6FF07B0BDE8F0830000001000A041
:10362000383802400010024000040240000C024002
:10363000F0B5444BB0F5002F404D4FF4801E404E86
:10364000A3F10404404F03F10402404984464FF0C3
:1036500000000DD0F44516D1D2F800C01CF4400C87
:103660003CD0BCF5800F4ED0BCF5000F0BD109E06B
:10367000D2F800C01CF4401C06D0F44519D0BCF5AB
:10368000001F00D13846F0BD08684002086800F00D
:103690003F0002D4B5FBF0F001E0B6FBF0F0196892
:1036A0001B681468C1F30362C3F38813C4F30421D5
:1036B0003DE008684002086800F03F0002D4B5FB16
:1036C000F0F001E0B6FBF0F0216823681468C1F364
:1036D000036204F01F01C3F3881328E00868400266
:1036E000086800F03F0002D4B5FBF0F001E0B6FB43
:1036F000F0F01C681B681168C4F30362C3F38813FD
:10370000C1F3042113E008684002086800F03F009C
:1037100002D4B5FBF0F001E0B6FBF0F025682368B9
:103720001168C5F3036201F01F01C3F3881343431B
:10373000491CB3FBF2F0B0FBF1F0F0BD0024F40043
:1037400040787D01883802400080BB000438024088
:103750002DE9F84F04460078DFF824944FF0000676
:103760003746C0070ED0D9F8001021F40001C9F87F
:103770000010D9F80010626B1143C9F80010606B9B
:1037800000B90126FE4D2068843500030ED5E16B9B
:10379000286820F4401008432860E06BB0F5801FD3
:1037A00001D010B102E0012600E0012720684FF4AB
:1037B000800BC0020CD5216C286820F4400008431F
:1037C0002860206C584501D1012601E000B901278D
:1037D0002068C10100D50126800666D5E84838304A
:1037E000016841F0805101600068DFF898A300F0A3
:1037F00080500090DAF8001041F48071CAF800108F
:10380000FFF702F8804605E0FEF7FEFFA0EB080098
:1038100064287DD8DAF80000C005F5D5DFF86083AC
:1038200008F16808D8F8000010F440702AD0218E02
:1038300001F44071814225D0D8F80010D8F800205A
:1038400021F4407142F48032C8F80020D8F80020FA
:1038500022F48032C8F80020C8F80010D8F8000020
:10386000C0070FD0FEF7D0FF824607E0FEF7CCFF7F
:10387000A0EB0A0141F288308142CAD8D8F8000092
:103880008007F3D5206BC0F3012103297ED0D9F83E
:10389000001021F4F811C9F80010228ED8F8001099
:1038A000C2F30B021143C8F800102078C00607D5F8
:1038B000286820F0807028602868A16B0843286081
:1038C0002188AF488830490405D5626E016821F42B
:1038D0004031114301602188090405D5A26E0168B9
:1038E00021F44021114301602168C90305D5E26E2E
:1038F000016821F44011114301602168890305D555
:10390000226F016821F4400111430160217800E039
:1039100018E1490605D5626C016821F003011143E5
:1039200001602178090605D5A26C016821F00C011F
:10393000114301602188C90505D5E26C016821F0B9
:103940003001114301602188890505D5226D016888
:1039500021F0C001114301602188490505D5626D40
:10396000016821F44071114301602188090505D5E2
:10397000A26D016821F44061114301602188C904EE
:1039800007D5E26D016821F4405100E041E01143A8
:1039900001602188890405D5226E016821F4404127
:1039A000114301602168490205D5A26F016821F029
:1039B00080611143016021684FF0006A890209D5D6
:1039C000E26F016821F0006111430160E16F514530
:1039D00000D1012721680A0700D50127490305D531
:1039E000626F016821F04071114301602168090292
:1039F00006D5D4F88020016821F080511143016080
:103A0000DFF88491012E0ED02068B0F1007F0AD03B
:103A10008FE05E4AD9F80030104023F4F8120243D8
:103A2000C9F8002039E7D9F800004E4620F0806040
:103A3000C9F80000FEF7E8FE804605E0FEF7E4FE68
:103A4000A0EB080064287DD830680001F6D4217806
:103A50004B487C30C90712D0616B81B9237A626808
:103A60000168D0F800C09201C1F3014142EA01426D
:103A7000CCF3036142EA016141EA0371016021680C
:103A80000A0303D5E26BB2F5801F04D0C9021AD530
:103A9000216C594517D16368016894F80CC002681D
:103AA0009B01C1F3014143EA0141C2F3027241EAC1
:103AB0000C6141EA027101602968626A21F01F010C
:103AC000521E114329602168C90110D5238A6268FA
:103AD0000168D0F800C09201C1F3036142EA0342D9
:103AE00042EA0162CCF3027142EA0171016021688D
:103AF00089010CD56168228A237B94F808C089016A
:103B000041EA024141EA036141EA0C710160316816
:103B1000B04641F080613160FEF776FE064604E073
:103B2000FEF772FE801B64280CD8D8F80000000154
:103B3000F6D56FB3D9F800004E4620F08050C9F892
:103B4000000000E079E0FEF75FFE074605E000BFF9
:103B5000FEF75AFEC01B64286FD83068C04380004F
:103B6000F6D50748216880300A0301D5E26B1AB107
:103B7000C90225D5216C19BB63690168277E08E05D
:103B8000083802400070004000380240FFFCFF0F80
:103B90005AE00268C1F301419B0143EA0143C2F3C9
:103BA000027143EA076242EA0171016029686FF01D
:103BB000FF03A26A21F4F85103EB022211432960AA
:103BC0002168890212D5E16F51450FD1238C6269BA
:103BD000016807689201C1F3036142EA034242EAC5
:103BE0000162C7F3027142EA01710160217809079D
:103BF00016D561690268D0F800C08B01277FC2F337
:103C00000362CCF3014143EA014141EA026141EA26
:103C1000077101602868E16A20F440300843286099
:103C2000306840F080503060FEF7EEFD044607E05B
:103C3000FEF7EAFD001B642802D90320BDE8F88FD7
:103C40003068C0438000F3D40020F7E72DE9F04747
:103C500005000F4663D0444E306800F00F00B842B4
:103C600009D2306820F00F0038433060306800F02F
:103C70000F00B84253D128683C4C810712D5400749
:103C800003D5206840F4E05020602878000703D571
:103C9000206840F460402060A968206820F0F000AF
:103CA000084320602878C0072AD03049686808395E
:103CB000012810D00968022810D0890700292EDABF
:103CC000216821F0030101432160FEF79DFD80463C
:103CD00041F288390DE009688903EFE78901EDE7D2
:103CE000FEF792FDA0EB0801494502D90320BDE88B
:103CF000F0876868216801F00C01B1EB800FEFD10B
:103D0000306800F00F00B8420BD9306820F00F0087
:103D100038433060306800F00F00B84201D0012015
:103D2000E5E72878400705D5E968206820F4E050E9
:103D3000084320602878000706D52869216821F407
:103D4000604141EAC000206000F05CF82168084A48
:103D5000C1F30311515CC840064908600020FFF719
:103D60002DF90020C3E70000003C02400838024063
:103D700038020508040700200D4A0F2330B5036000
:103D80004FF4E0540B4B156805F0030545601568CA
:103D900005F0F0058560156805F4E055C56012680A
:103DA00004EAD2020261186800F00F00086030BD1A
:103DB00008380240003C024001480068704700009B
:103DC000040700200449054809680068044AC1F353
:103DD0008221515CC8407047083802400407002027
:103DE000480205080449054809680068044AC1F307
:103DF0004231515CC8407047083802400407002037
:103E000048020508154910B51548096811F00C025B
:103E100013D01449042A0FD0082A0ED10F4C241FA6
:103E20002268236802F03F025B0207D52068C0F3D6
:103E30008810A0FB010106E0084610BD2168C1F30F
:103E40008811A1FB00010023FCF7DAF92168C1F316
:103E50000141491C4900B0FBF1F010BD0838024097
:103E60000024F40040787D012DE9F84F05004FF063
:103E700000076ED02878DFF81C93A9F1040AC00768
:103E8000AAF104044CD0D9F800104846C1F38101CE
:103E9000012908D00068C0F3810002280AD1DAF8AD
:103EA0000000400206D52068800339D568680028E4
:103EB000DFD035E06868B0F5803F0BD010B1B0F5C9
:103EC000A02F11D0206820F480302060206820F4DA
:103ED000802002E0206840F480302060686890B163
:103EE000FEF792FC06460AE0206840F4802020603D
:103EF000F0E700BFFEF788FC801B642872D82068BA
:103F00008003F7D50CE0FEF77FFC064605E000BF16
:103F1000FEF77AFC801B6428F0D820688003F7D471
:103F20002878800742D5D9F80010484611F00C0FC8
:103F300008D00068C0F3810002280BD1DAF8000035
:103F4000400207D42068800718D5E868012800D10E
:103F500014E01CE1E8680028206817D040F0010058
:103F60002060FEF751FC064605E000BFFEF74CFC62
:103F7000801B0228C2D820688007F7D528692168ED
:103F800021F0F80141EAC00020600FE020F00100BC
:103F90002060FEF739FC064605E000BFFEF734FC62
:103FA000801B02281ED820688007F7D428780007D5
:103FB00029D5784869696C3000298046016812D09B
:103FC00041F001010160FEF71FFC064605E000BF5D
:103FD000FEF71AFC801B022804D8D8F800008007DE
:103FE000F6D510E089E021F001010160FEF70CFC3C
:103FF000064604E0FEF708FC801B02287DD8D8F8AE
:1040000000008007F6D4287840076BD5DFF884815C
:1040100008F13808D8F80000C0000BD4D8F8001018
:1040200041F08051C8F80010D8F80000012700F0D6
:104030008050009058480168C90512D40168834631
:1040400041F480710160FEF7DFFB064605E000BF2A
:10405000FEF7DAFB801B64284FD8DBF80000C005B0
:10406000F6D54C4EA868683601280AD008B1052854
:1040700011D0306820F001003060306820F004007A
:1040800002E0306840F001003060A868A0B1FEF79F
:10409000BBFB83460CE0306840F004003060F0E782
:1040A000FEF7B2FBA0EB0B0141F28830814266D8EB
:1040B00030688007F4D50EE0FEF7A6FB834607E0E4
:1040C000FEF7A2FBA0EB0B0141F28830814256D8EB
:1040D00030688007F4D42FB1D8F8001021F0805157
:1040E000C8F80010A869C8B3D9F80010C1F381015D
:1040F00002294CD00228206800E040E020F08070C7
:10410000206003D0FEF780FB05463BE0FEF77CFB1A
:10411000064604E0FEF778FB801B02282FD82068B3
:104120008001F7D4D5E90962D5E907011B4B57088F
:1041300095F82C20084303EB074343EA8611084314
:1041400040EA026040F00050CAF80000206840F0E9
:1041500080702060FEF758FB054606E015E000BFC2
:10416000FEF752FB401B022809D820688001F7D5D2
:104170000BE000BFFEF748FB401B022802D90320DA
:10418000BDE8F88F20688001F4D40020F8E7012012
:10419000F6E7000008380240007000400000FFFF12
:1041A000F0B5037F012B26D0012404770223437747
:1041B0000568CA26AB686E62532506687562056895
:1041C000EE6C26F00606EE640568EE6C40F6080715
:1041D0001643EE64BB430B4301688B6001688A6839
:1041E00042F400628A600268FF2151620021447734
:1041F00001770846F0BD0220F0BD00002DE9F04136
:10420000040002D0607F18B107E00120BDE8F08112
:1042100000202077204600F041F802206077CA2174
:1042200022685320516221684862204602F08CFEC9
:10423000002820684FF0FF0103D00422416262771A
:10424000E3E7154D012382682A408260D4E9002605
:10425000D4E9045790683D43304328439060226876
:10426000E068106120682289056945EA024202611E
:104270002068C26822F08002C2602068C26C22F00E
:104280000802C2642068A569C26C2A43C26420681F
:10429000416263770020B9E7BFFF8FFF00680449E0
:1042A000884204D10348016841F40041016070472D
:1042B00000280040703802402DE9F05F0446007F7E
:1042C0000B46012843D002210120207761774FF06F
:1042D0000006206880684FEA4060BAB3002800DB1F
:1042E0001E7358781A781F7B9978050293F824C0BA
:1042F00041EA0241186A45EA07459A69294341EAB9
:104300000C65054315432268D3F81CC0CA215F68B9
:1043100053204FF0FF0851624FF47A7A216847EA40
:104320000C074FF0030B4862986AB0F5807F206855
:1043300081682DD021F4007181602068816821F4AA
:1043400000518160FEF760FA814655E002E00220EC
:10435000BDE8F09F002800DB1E73187802F0E9FD2D
:104360000204587802F0E5FD42EA0022987802F053
:10437000E0FD197B024393F8240042EA014202F077
:10438000D8FD196A42EA006598690D430543BAE70A
:1043900021F4807181602068816821F480518160FE
:1043A000FEF732FA81460BE0FEF72EFAA0EB090089
:1043B000504505D92268C2F8248084F81DB018E061
:1043C0002068C068C007EFD02068C56120684764D6
:1043D0002068816841F480711AE000BFFEF714FA8A
:1043E000A0EB0900504507D92268C2F8248084F860
:1043F0001DB003202677ABE72068C0688007EDD5A5
:1044000020680562206887642068816841F4007133
:10441000816022680120C2F824806077002026771E
:1044200096E700002DE9F0470446007F0B4601287F
:1044300021D04FF0010984F81C9002216177EAB184
:1044400059789878DA781B78090240EA024541EAFF
:10445000433005432268CA215320516221684862D3
:10446000204602F071FD4FF000064FF0FF074FF0BD
:10447000040860BB1AE00220BDE8F0875878C10646
:1044800003D500F0EF000A305870D87802F051FDE3
:104490000204587802F04DFD42EA0022987802F0BA
:1044A00048FD1978024342EA4135D3E721680F48B5
:1044B00005404D602068C16821F08001C16020681E
:1044C000806880060AD4204600F088F830B1216860
:1044D0004F6284F81D8001202677CDE721684F6266
:1044E00084F81D9000202677C6E700003FFFFF00FC
:1044F0002DE9F0470446007F0D46012828D04FF0F3
:10450000010A84F81CA00221617720684FF00006A0
:1045100080684FEA4060F2B1002800DB2E736978B2
:104520002A78A8782B7B090240EA024741EA034037
:1045300007432268CA2153205162216848622046FD
:1045400002F002FD4FF0FF084FF00409A0BB16E097
:104550000220BDE8F087002800DB2E73287802F0E7
:10456000E8FC0204687802F0E4FC42EA0022A87841
:1045700002F0DFFC297B024342EA0147D9E72168C8
:10458000154807400F602068816821F48021816010
:104590002068D5E9041283681143194381602068BB
:1045A000C16821F08001C1602068806880060BD45A
:1045B000204600F013F838B12268C2F8248084F84D
:1045C0001D9001202677C4E72268C2F8248084F871
:1045D0001DA000202677BCE77F7F7F0070B50446D2
:1045E0000068C16821F0A001C160FEF70DF94FF429
:1045F0007A76054607E000BFFEF706F9401BB04299
:1046000001D9032070BD2068C0688006F4D5002061
:1046100070BD00002DE9F0474FF00006040035465C
:1046200004D094F87D00B14618B107E00120BDE840
:10463000F087204684F87C9000F0E0F8022084F8AF
:104640007D00204602F09EFCE06838B1012802D0CF
:10465000022803D101E0102600E02026A16861B104
:10466000012906D002294FF4006005D0032904D1A6
:104670000EE04FF4806500E005465C495B4A206827
:104680002031904201D0884205D15848001F03E0F4
:1046900046F00106F0E756480660E06948B3236833
:1046A0000020934201D08B4203D14FF40020FEF74B
:1046B000BFFF4F4A2168121D914203D04C4A243259
:1046C000914203D14FF48010FEF7B2FFE16900EB95
:1046D00080000A2240004902B0FBF1F0B0FBF2F387
:1046E000B0FBF2F1216202FB1300082801D9491C3A
:1046F000216260684FF40078E8B3022871D0E06B63
:10470000012801D04FF000082068DFF8E8C06FF002
:10471000FF01394E4EF20F0203684FF2200703EA01
:104720000C030360236B60681843D4E90D3C43EA33
:104730000C031843636A40EA08002843D4E904C51F
:104740001843236840EA0C002843258CD3F800C0A6
:1047500040EA0555484645EA0C051D6023685D683A
:104760004FF0010C95435D60D4F80080D8F8042028
:10477000A3691A4300E034E0D4E90A352B431A4315
:10478000C8F804202268936833409360A36C226DBC
:10479000256C1A43E36C6D1E2B43656C1A4323682A
:1047A00001EB05252A439D682A439A6054F8542B4F
:1047B000D3683B40D36094E86400A78954F8543D23
:1047C0002A4301EB062141EA0741DD680A432A43F7
:1047D000DA60C4F8800084F87DC084F87C00002092
:1047E00025E7E06B01288DD08EE7000004580140DA
:1047F000005C014010C005FF0080F8FF2DE9F04388
:1048000020490746006800261F4C87B01F4D88428C
:104810004FF002084FF00A0915D1A86838B921688D
:1048200041F400012160216801F400010591401C60
:10483000A860F0230093CDE9018615486946CDE9CB
:104840000369FDF7DDFE0F4938682031884216D133
:10485000A86838B9216841F400012160216801F499
:1048600000010591401CA8604FF480630093CDE9DE
:10487000018608486946CDE90369FDF7C1FE07B026
:10488000BDE8F083045C014044380240E4060020A7
:10489000002002400018024070B504000D4603D00D
:1048A00094F82C0010B107E0012070BD002084F8BE
:1048B0002D00204600F011F8022084F82C0020681A
:1048C000211DFDF711F8D4E900022946FDF752F841
:1048D000012084F82C00002070BDFDF775BD10B5D7
:1048E000044690F82C00022809D0022084F82C00FD
:1048F0002068FDF728F8012084F82C00002010BD66
:1049000070B5044690F82C000D4602280DD0022008
:1049100084F82C002068FDF71CF82868022805D0D0
:104920005FF0010084F82C00002070BD0520F9E73D
:10493000FEB504460D46416C032084F8340003297B
:1049400020D0B5F5805F1DD0B5F5006F05D045B11D
:10495000A06B40F00060A06309E0204602F01DFF5C
:1049600002E0204602F0F2FEA16B0143A163A06BBE
:10497000012658B1216840F2FF50886384F8346002
:104980000120FEBDA06B40F08050E4E7211DD4E97A
:1049900005070EC9CDE900500297206802F07CFDA2
:1049A00084F834600020FEBDF0B5426E120E93090B
:1049B0000B70C2F3830402F003024C708A70426EE3
:1049C000120CCA70B0F86420120A0A7190F86420C0
:1049D0004A714FF6FF73826E120E03EA0212CA800A
:1049E000CB88826EC2F3074214092343CB8002F0C6
:1049F0000F020A72B0F868200025C2F30722D3091B
:104A00004B72C2F38014C2F34016C2F300178C72CB
:104A1000CE720F734D730123446C4FF400766CB16A
:104A2000012C46D0026840F2FF519163816B41F046
:104A30008051816380F834300120F0BD9207120D5F
:104A40000A610C6990F8682044EA82020A610C69E4
:104A5000C26E120E9709C2F3C20C3C430C6102F005
:104A6000070281F814C04A75C26EC2F30742940768
:104A700057098F75640FC2F38202CA750C760A7EDD
:104A8000B0F86C40C4F3072442EAD4120A760A69EB
:104A9000521C42650F7EBF1CBA4042650F7A03FA72
:104AA00007F787654FEA572C02FB0CF2C0E917267F
:104AB0001CE090F868209206920A0A610C69C26EA6
:104AC000120E44EA02220A610C69C26EC2F3074266
:104AD00014430C610A69B0F86C40521C4FEA822200
:104AE0004265C4F30724C0E916620666C4F3801267
:104AF0004FEA84644A764FEA54648C7690F86C20CE
:104B00008C7E4FEAD21602F07F0244EA06048C76CD
:104B1000CA7650F8702F4FEA12624FEAD2140C771F
:104B2000C2F34116C2F382074FEA82724E778F7743
:104B30004FEA1272CA77CC7F0268C2F3074244EA96
:104B40009214CC77C2F3401602F0010281F8206083
:104B500081F8215081F822200288C2F307224FEA0F
:104B6000D21481F82340C2F38015C2F34016C2F379
:104B70000017C2F3810C02F0030281F8245081F87F
:104B8000256081F8267081F827C081F828200078F8
:104B90004FEA500081F8290081F82A304FF00000D8
:104BA000F0BD70B5040004D094F83400002510B1B5
:104BB00005E0012070BD2046257700F03BF803207A
:104BC00084F83400204600F007F80120A56325632F
:104BD00084F83400002070BD3EB5044676200021E4
:104BE00000910B460A46CDE90110206802F054FC02
:104BF0002068416821F480714160206802F05DFC0A
:104C00002068416841F4807141600220FDF7CAFBD1
:104C1000204602F048FD4FF0010520B9204602F081
:104C2000CFFC002805D084F83450A16B0143A16368
:104C300001203EBDF0B587B0044614216846FBF75D
:104C400038FB1A49206888422DD11948016841F47F
:104C500000610160006800F4006005901448143899
:104C6000016841F004010160016801F0040105914F
:104C7000016841F0080101600068022400256946CE
:104C800000F00800059003260C274FF4F8508DE83B
:104C9000F1000848FDF7B4FC042069468DE8F100F6
:104CA0000548FDF7ADFC07B0F0BD0000002C014049
:104CB0004438024000080240000C02402DE9F04157
:104CC000040004D094F84500002518B107E0012045
:104CD000BDE8F08184F84450204600F029F8022015
:104CE00084F845002068016821F003010160D4E9DF
:104CF0000131A069D4E9032618436369114322688E
:104D0000084330431843D4E90717D4E90936084368
:104D100011683843054F1843394030430843106049
:104D20000121A56484F845100020D1E70784F8FF2D
:104D300010B586B0044614216846FBF7BAFA20681D
:104D4000B0F1402F1FD11148016841F4803101605A
:104D5000006800F4803005900C481038016841F07C
:104D60000801016000680823802100F00800059018
:104D70000020009102226946CDE90120CDE903031C
:104D80000348FDF73DFC06B010BD0000403802406E
:104D9000000C02402DE9F047040005D094F85D00B6
:104DA0000025A56218B107E00120BDE8F087204684
:104DB00084F85C5000F050F8022284F85D204FF433
:104DC000E0632068016821F040010160E0689842DA
:104DD00001D9002101E04FF48051B0F5706F02D08D
:104DE000984200D0A5624FF00109266B2EB9984277
:104DF00001D9226301E0C4F83090D4E90468D4E911
:104E00000102278B46EA0806A36A104307F40078DC
:104E100030432668D4E907C240EA080040EA0C00A3
:104E2000CC460427104318433060D4F81880666BD2
:104E3000606AE26807EA1847236830433A43104340
:104E4000084358602068C16921F40061C16125668A
:104E500084F85DC00020A8E770B586B00446142130
:104E60006846FBF726FA1C492068884231D11B4866
:104E7000016841F480410160006800F480400590C1
:104E800016481038016841F480710160016801F42E
:104E900080710591016841F0020101600068002401
:104EA0000225009500F002006946CDE9015405266F
:104EB0000394CDE904600A48FDF7A2FB4FF440409B
:104EC0000090CDE9015407486946CDE90346FDF756
:104ED00097FB06B070BD000000380040403802402B
:104EE00000200240000402407047704770470000F5
:104EF0002DE9F04390F83C20012A42D0012280F8AD
:104F00003C2051F80C4BDFF880804FF0000991E80D
:104F1000680051E9022723F44073B1F80CC03B4309
:104F2000CF6923F480631343026823F400632343AF
:104F300023F4805343EA050323F4005343EA0603B2
:104F400023F4804343EA07030C3923F470234245DA
:104F500043EA0C4302D00D4CA2420CD18D8C23F4B9
:104F60007006D1E9073446EA055121F080711943F2
:104F700021F000732343536480F83C900020BDE887
:104F8000F0830220FBE70000000001400004014024
:104F900070B590F83C20012A24D0134C012580F8EC
:104FA0003C50022280F83D2002685368A242966875
:104FB00002D00E4CA24203D14C6823F47003234369
:104FC0000C6823F0700389681C435460002326F0AA
:104FD000800602683143916080F83D5080F83C3093
:104FE000184670BD022070BD000001400004014061
:104FF00010B5040003D094F83D0010B107E0012083
:1050000010BD002084F83C00204600F00DF802207E
:1050100084F83D002068211D02F086FC012084F800
:105020003D00002010BD000008B502681A481B4969
:10503000824205D1086840F001000860086811E06C
:105040001748B2F1804F08D0164B9A420ED1016832
:1050500041F00201016000681BE0016841F00101BC
:105060000160006800F00100009008BD0E4B9A42FC
:1050700007D1016841F008010160006800F00800F4
:10508000F2E70A488242F0D1086840F00200086066
:10509000086800F00200E7E70000014044380240E1
:1050A0004038024000040040000C00400004014071
:1050B0000168094ACB6843F00103CB600168886846
:1050C0001040062806D0B0F5803F03D0086840F0B5
:1050D00001000860002070470700010070B5044619
:1050E00090F83C00012817D0324B012584F83C5041
:1050F000022084F83D0022689068184020F47F4028
:1051000090600868502830D00DDC20284DD005DC98
:1051100098B310283BD148E0022070BD302844D01D
:10512000402834D139E0602828D0702806D0B0F566
:10513000805F2CD0B0F5005F29D10AE04A68206872
:10514000D1E9021302F056FC2068816841F0770132
:1051500009E04A682068D1E9021302F04BFC20689C
:10516000816841F48041816011E0CA684968206823
:1051700002F088FD2068502107E016E0CA684968FF
:10518000206802F090FD2068602102F03CFC0020C5
:1051900084F83D5084F83C0070BDCA6849682068B6
:1051A00002F070FD20684021EFE7226801461046BA
:1051B000EBE7000088FFFEFF704770B5044600680B
:1051C00000250169C943890715D4C168C943890706
:1051D00011D4EA1E026101212177206880698007CD
:1051E000204602D0FFF7E8FF04E000F027F9204650
:1051F00000F0E8F9257720680169C943490717D409
:10520000C168C943490713D402216FF00402026147
:1052100021772068806910F4407F204602D0FFF794
:10522000CBFF04E000F00AF9204600F0CBF9257727
:1052300020680169C943090716D4C168C943090731
:1052400012D404216FF00802026121772068C0693E
:105250008007204602D0FFF7AFFF04E000F0EEF831
:10526000204600F0AFF9257720680169C943C906D7
:1052700017D4C168C943C90613D408216FF01002BE
:10528000026121772068C06910F4407F204602D077
:10529000FFF792FF04E000F0D1F8204600F092F909
:1052A000257720680169C943C90708D1C168C94386
:1052B000C90704D1891E0161204600F085F92068E4
:1052C0000169C943090609D4C168C943090605D45F
:1052D0006FF0800101612046FFF707FE2068016939
:1052E000C943C90509D4C168C943090605D46FF487
:1052F000807101612046FFF7F7FD20680169C9430D
:10530000490609D4C168C943490605D46FF0400174
:105310000161204600F062F920680169C9438906ED
:105320000BD4C168C943890607D46FF0200101611D
:105330002046BDE87040FFF7D9BD70BD70B586B09E
:10534000044614216846FAF7B4FF24680022334E5D
:105350000223314901253248B44209D10C6844F096
:1053600001040C60096801F001010591811520E03C
:10537000B4F1804F13D02B48844224D1086840F008
:10538000020008600868694600F0020005901020DD
:105390000090CDE901322448CDE903230FE00C68E9
:1053A00044F001040C60096801F0010105914FF41B
:1053B00000410091CDE90132CDE903256946FDF7B1
:1053C0001FF906B070BD194884420FD1086840F437
:1053D0008070086008686946009500F48070CDE927
:1053E00001320392CDE904301148E8E711488442C4
:1053F000E7D1086840F080000860086800F080008D
:1054000005904020009009210B48CDE90132CDE9FB
:1054100003216946D3E70000303802400000014014
:10542000000002400004004000040240000C004064
:105430000020024000180040001C0240704770B578
:10544000044690F83C000D4601280ED0012684F851
:105450003C60022084F83D000C2A45D007DC5AB19C
:10546000042A1BD0082A78D12CE0022070BD102A13
:105470004ED0142A71D15DE0206802F0CDFA206888
:10548000816941F0080181612068816921F004018E
:10549000816120682A698169114311E0206802F066
:1054A000F5FA2068816941F40061816120688169B1
:1054B00021F48061816120682969826942EA0121C1
:1054C00081614AE0206802F01DFB2068C16941F05B
:1054D0000801C1612068C16921F00401C16120682F
:1054E0002A69C169114311E0206802F047FB206876
:1054F000C16941F40061C1612068C16921F4806122
:10550000C16120682969C26942EA0121C16124E0C0
:10551000206802F05FFB2068416D41F008014165A1
:105520002068416D21F00401416520682A69416DC0
:10553000114311E0206802F079FB2068416D41F4CD
:10554000006141652068416D21F4806141652068FA
:105550002969426D42EA01214165002084F83D60DD
:1055600084F83C0070BD10B5040003D094F83D00F1
:1055700010B107E0012010BD002084F83C00204657
:1055800000F00CF8022084F83D002068211D02F094
:10559000CBF9012084F83D00002010BD08B500685B
:1055A0000649884208D10648016841F0400101607F
:1055B000006800F04000009008BD000000180040A6
:1055C000403802407047000000680349884201D11A
:1055D000FDF7E0BC7047000000100040704710B5B8
:1055E000040002D0606F10B107E0012010BD002060
:1055F00084F87000204600F025F8242060672068B9
:10560000016821F001010160204602F00DFC012833
:10561000ECD0606A10B1204602F084FB206841683B
:1056200021F4904141602068816821F02A01816065
:105630002068016841F0010101602046BDE810408A
:1056400002F0D4BB70B586B0054614216846FAF75F
:1056500030FE2B4800242B4B2A6814382849022599
:105660009A422BD10A6842F010020A60096801F0E0
:1056700010010591016841F002010160016801F02B
:1056800002010591016841F00101016000680726EF
:10569000694600F00100059080200090CDE901549A
:1056A0001948CDE90346FCF7ABFF28020090CDE98D
:1056B000015416486946CDE903461CE0144B9A4252
:1056C0001BD10A6842F020020A60096801F020013B
:1056D0000591016841F0040101600068082203217E
:1056E000029400F004000590C020CDE90312CDE93A
:1056F000000508486946FCF783FF06B070BD00004E
:105700004438024000100140000402400000024002
:1057100000140140000802402DE9F84F0446806F54
:105720009B4616460D4620286AD1EDB1E6B194F8A5
:105730007000012864D0012284F8702022214FF0EB
:105740000008C4F87C80A167FDF75EF88246A06877
:10575000A4F858604FF48053A4F85A60FF2198428F
:1057600008D122691AB118E00120BDE8F88F40F293
:10577000FF1112E04FF07F0268B1B0F1805F0FD0EF
:10578000A4F85C809842B4F85C7001D1206970B1D3
:105790002E4600250CE0266936B9A4F85C10F1E726
:1057A000216909B13F21F8E7A4F85C20EAE7002667
:1057B00007F0FF09B4F85A00E0B100225346202157
:1057C0002046CDF800B002F059FC08B10320CCE728
:1057D0002068406A56B100EA090006F8010B00BFD4
:1057E000B4F85A00401EA4F85A00E3E7384025F800
:1057F000020BF5E72021A167002084F87080B4E750
:105800000220B2E72DE9F8430446406F1F461646D2
:105810000D4620284FD1CDB1C6B194F870000128B3
:1058200049D0012284F8702021214FF00008C4F8EB
:105830007C806167FCF7E8FF8146A068A4F85060AF
:10584000A4F85260B0F5805F03D004E00120BDE809
:10585000F883206910B12E46002510E000260EE0E6
:105860008021204602F00AFCB8B9C6B116F8010B37
:1058700021688862B4F85200401EA4F85200B4F8BF
:1058800052004B464FF0000200970028E8D14FF03D
:105890004001204602F0F2FB38B10320D7E735F88B
:1058A000020B2168C0F30800E3E7202161670020B4
:1058B00084F87080CBE70220C9E700002DE9F05F93
:1058C000074600680E464FF0040B00EB4114D4F875
:1058D000082501EB86004FF0050A4FF0100807EB92
:1058E000C005510708D5C4F808B5D4F80C0540F038
:1058F0000200C4F80C0534E0D4F80805800603D58E
:105900002020C4F808052CE0D4F808054FF0080959
:10591000000710D5D4F80C3543F00203C4F80C3559
:1059200085F85DA0C4F80885C4F808953146386844
:1059300002F068FC15E0D4F80805400511D5D4F84C
:105940000C0540F00200C4F80C053868314602F03E
:1059500059FC4FF48062C4F8088585F85D90C4F85E
:105960000825D4F8080580050ED5D4F80C0540F0BC
:105970000200C4F80C05386804F5A164314602F051
:1059800041FC4FF4007090E0D4F80805002101229A
:10599000C00738D0386930B1D4F81035A86CC3F3DB
:1059A0001203C01AE86485F85D20A965C4F80825CB
:1059B00095F83F0020B1022802D003280FD01AE04A
:1059C000D4F80C0540F00200C4F80C05386804F562
:1059D000A164314602F016FCC4F800800BE0D4F854
:1059E000000540F00050C4F800053146384685F8FF
:1059F0005C20FCF711FF95F8500080F0010085F85D
:105A00005000BDE8F09FD4F80805800736D5D4F8DB
:105A10000C05022320F00200C4F80C0595F85D0087
:105A2000012808D0052809D006280AD0082808D05F
:105A3000032820D016E085F85C2013E085F85CA0F0
:105A400010E0A86D401CA865032814D9A96585F845
:105A50005CB000BFD4F8000520F0804040F000406A
:105A6000C4F80005C4F80835314695F85C2038467E
:105A7000FCF7D2FEC5E785F85C30EBE7D4F8080503
:105A8000000614D5D4F80C05062140F00200C4F835
:105A90000C05A86D04F5A164401CA86585F85D108F
:105AA0003146386802F0AEFB80202060A9E7D4F8C8
:105AB0000805C006A5D595F83F00032803D020B1FE
:105AC000022802D011E0A96505E0A965386960B92E
:105AD000032085F85D00D4F80C0540F00200C4F8FE
